{
    "contractName": "MyToken",
    "abi": [
        {
            "inputs": [
                {
                    "internalType": "address",
                    "name": "initialOwner",
                    "type": "address"
                }
            ],
            "stateMutability": "nonpayable",
            "type": "constructor"
        },
        {
            "inputs": [],
            "name": "ECDSAInvalidSignature",
            "type": "error"
        },
        {
            "inputs": [
                {
                    "internalType": "uint256",
                    "name": "length",
                    "type": "uint256"
                }
            ],
            "name": "ECDSAInvalidSignatureLength",
            "type": "error"
        },
        {
            "inputs": [
                {
                    "internalType": "bytes32",
                    "name": "s",
                    "type": "bytes32"
                }
            ],
            "name": "ECDSAInvalidSignatureS",
            "type": "error"
        },
        {
            "inputs": [
                {
                    "internalType": "address",
                    "name": "spender",
                    "type": "address"
                },
                {
                    "internalType": "uint256",
                    "name": "allowance",
                    "type": "uint256"
                },
                {
                    "internalType": "uint256",
                    "name": "needed",
                    "type": "uint256"
                }
            ],
            "name": "ERC20InsufficientAllowance",
            "type": "error"
        },
        {
            "inputs": [
                {
                    "internalType": "address",
                    "name": "sender",
                    "type": "address"
                },
                {
                    "internalType": "uint256",
                    "name": "balance",
                    "type": "uint256"
                },
                {
                    "internalType": "uint256",
                    "name": "needed",
                    "type": "uint256"
                }
            ],
            "name": "ERC20InsufficientBalance",
            "type": "error"
        },
        {
            "inputs": [
                {
                    "internalType": "address",
                    "name": "approver",
                    "type": "address"
                }
            ],
            "name": "ERC20InvalidApprover",
            "type": "error"
        },
        {
            "inputs": [
                {
                    "internalType": "address",
                    "name": "receiver",
                    "type": "address"
                }
            ],
            "name": "ERC20InvalidReceiver",
            "type": "error"
        },
        {
            "inputs": [
                {
                    "internalType": "address",
                    "name": "sender",
                    "type": "address"
                }
            ],
            "name": "ERC20InvalidSender",
            "type": "error"
        },
        {
            "inputs": [
                {
                    "internalType": "address",
                    "name": "spender",
                    "type": "address"
                }
            ],
            "name": "ERC20InvalidSpender",
            "type": "error"
        },
        {
            "inputs": [
                {
                    "internalType": "uint256",
                    "name": "deadline",
                    "type": "uint256"
                }
            ],
            "name": "ERC2612ExpiredSignature",
            "type": "error"
        },
        {
            "inputs": [
                {
                    "internalType": "address",
                    "name": "signer",
                    "type": "address"
                },
                {
                    "internalType": "address",
                    "name": "owner",
                    "type": "address"
                }
            ],
            "name": "ERC2612InvalidSigner",
            "type": "error"
        },
        {
            "inputs": [
                {
                    "internalType": "address",
                    "name": "account",
                    "type": "address"
                },
                {
                    "internalType": "uint256",
                    "name": "currentNonce",
                    "type": "uint256"
                }
            ],
            "name": "InvalidAccountNonce",
            "type": "error"
        },
        {
            "inputs": [],
            "name": "InvalidShortString",
            "type": "error"
        },
        {
            "inputs": [
                {
                    "internalType": "address",
                    "name": "owner",
                    "type": "address"
                }
            ],
            "name": "OwnableInvalidOwner",
            "type": "error"
        },
        {
            "inputs": [
                {
                    "internalType": "address",
                    "name": "account",
                    "type": "address"
                }
            ],
            "name": "OwnableUnauthorizedAccount",
            "type": "error"
        },
        {
            "inputs": [
                {
                    "internalType": "string",
                    "name": "str",
                    "type": "string"
                }
            ],
            "name": "StringTooLong",
            "type": "error"
        },
        {
            "anonymous": false,
            "inputs": [
                {
                    "indexed": true,
                    "internalType": "address",
                    "name": "owner",
                    "type": "address"
                },
                {
                    "indexed": true,
                    "internalType": "address",
                    "name": "spender",
                    "type": "address"
                },
                {
                    "indexed": false,
                    "internalType": "uint256",
                    "name": "value",
                    "type": "uint256"
                }
            ],
            "name": "Approval",
            "type": "event"
        },
        {
            "anonymous": false,
            "inputs": [],
            "name": "EIP712DomainChanged",
            "type": "event"
        },
        {
            "anonymous": false,
            "inputs": [
                {
                    "indexed": true,
                    "internalType": "address",
                    "name": "previousOwner",
                    "type": "address"
                },
                {
                    "indexed": true,
                    "internalType": "address",
                    "name": "newOwner",
                    "type": "address"
                }
            ],
            "name": "OwnershipTransferred",
            "type": "event"
        },
        {
            "anonymous": false,
            "inputs": [
                {
                    "indexed": true,
                    "internalType": "address",
                    "name": "from",
                    "type": "address"
                },
                {
                    "indexed": true,
                    "internalType": "address",
                    "name": "to",
                    "type": "address"
                },
                {
                    "indexed": false,
                    "internalType": "uint256",
                    "name": "value",
                    "type": "uint256"
                }
            ],
            "name": "Transfer",
            "type": "event"
        },
        {
            "inputs": [],
            "name": "DOMAIN_SEPARATOR",
            "outputs": [
                {
                    "internalType": "bytes32",
                    "name": "",
                    "type": "bytes32"
                }
            ],
            "stateMutability": "view",
            "type": "function"
        },
        {
            "inputs": [
                {
                    "internalType": "address",
                    "name": "owner",
                    "type": "address"
                },
                {
                    "internalType": "address",
                    "name": "spender",
                    "type": "address"
                }
            ],
            "name": "allowance",
            "outputs": [
                {
                    "internalType": "uint256",
                    "name": "",
                    "type": "uint256"
                }
            ],
            "stateMutability": "view",
            "type": "function"
        },
        {
            "inputs": [
                {
                    "internalType": "address",
                    "name": "spender",
                    "type": "address"
                },
                {
                    "internalType": "uint256",
                    "name": "value",
                    "type": "uint256"
                }
            ],
            "name": "approve",
            "outputs": [
                {
                    "internalType": "bool",
                    "name": "",
                    "type": "bool"
                }
            ],
            "stateMutability": "nonpayable",
            "type": "function"
        },
        {
            "inputs": [
                {
                    "internalType": "address",
                    "name": "account",
                    "type": "address"
                }
            ],
            "name": "balanceOf",
            "outputs": [
                {
                    "internalType": "uint256",
                    "name": "",
                    "type": "uint256"
                }
            ],
            "stateMutability": "view",
            "type": "function"
        },
        {
            "inputs": [],
            "name": "decimals",
            "outputs": [
                {
                    "internalType": "uint8",
                    "name": "",
                    "type": "uint8"
                }
            ],
            "stateMutability": "view",
            "type": "function"
        },
        {
            "inputs": [],
            "name": "eip712Domain",
            "outputs": [
                {
                    "internalType": "bytes1",
                    "name": "fields",
                    "type": "bytes1"
                },
                {
                    "internalType": "string",
                    "name": "name",
                    "type": "string"
                },
                {
                    "internalType": "string",
                    "name": "version",
                    "type": "string"
                },
                {
                    "internalType": "uint256",
                    "name": "chainId",
                    "type": "uint256"
                },
                {
                    "internalType": "address",
                    "name": "verifyingContract",
                    "type": "address"
                },
                {
                    "internalType": "bytes32",
                    "name": "salt",
                    "type": "bytes32"
                },
                {
                    "internalType": "uint256[]",
                    "name": "extensions",
                    "type": "uint256[]"
                }
            ],
            "stateMutability": "view",
            "type": "function"
        },
        {
            "inputs": [
                {
                    "internalType": "address",
                    "name": "to",
                    "type": "address"
                },
                {
                    "internalType": "uint256",
                    "name": "amount",
                    "type": "uint256"
                }
            ],
            "name": "mint",
            "outputs": [],
            "stateMutability": "nonpayable",
            "type": "function"
        },
        {
            "inputs": [],
            "name": "name",
            "outputs": [
                {
                    "internalType": "string",
                    "name": "",
                    "type": "string"
                }
            ],
            "stateMutability": "view",
            "type": "function"
        },
        {
            "inputs": [
                {
                    "internalType": "address",
                    "name": "owner",
                    "type": "address"
                }
            ],
            "name": "nonces",
            "outputs": [
                {
                    "internalType": "uint256",
                    "name": "",
                    "type": "uint256"
                }
            ],
            "stateMutability": "view",
            "type": "function"
        },
        {
            "inputs": [],
            "name": "owner",
            "outputs": [
                {
                    "internalType": "address",
                    "name": "",
                    "type": "address"
                }
            ],
            "stateMutability": "view",
            "type": "function"
        },
        {
            "inputs": [
                {
                    "internalType": "address",
                    "name": "owner",
                    "type": "address"
                },
                {
                    "internalType": "address",
                    "name": "spender",
                    "type": "address"
                },
                {
                    "internalType": "uint256",
                    "name": "value",
                    "type": "uint256"
                },
                {
                    "internalType": "uint256",
                    "name": "deadline",
                    "type": "uint256"
                },
                {
                    "internalType": "uint8",
                    "name": "v",
                    "type": "uint8"
                },
                {
                    "internalType": "bytes32",
                    "name": "r",
                    "type": "bytes32"
                },
                {
                    "internalType": "bytes32",
                    "name": "s",
                    "type": "bytes32"
                }
            ],
            "name": "permit",
            "outputs": [],
            "stateMutability": "nonpayable",
            "type": "function"
        },
        {
            "inputs": [],
            "name": "renounceOwnership",
            "outputs": [],
            "stateMutability": "nonpayable",
            "type": "function"
        },
        {
            "inputs": [],
            "name": "symbol",
            "outputs": [
                {
                    "internalType": "string",
                    "name": "",
                    "type": "string"
                }
            ],
            "stateMutability": "view",
            "type": "function"
        },
        {
            "inputs": [],
            "name": "totalSupply",
            "outputs": [
                {
                    "internalType": "uint256",
                    "name": "",
                    "type": "uint256"
                }
            ],
            "stateMutability": "view",
            "type": "function"
        },
        {
            "inputs": [
                {
                    "internalType": "address",
                    "name": "to",
                    "type": "address"
                },
                {
                    "internalType": "uint256",
                    "name": "value",
                    "type": "uint256"
                }
            ],
            "name": "transfer",
            "outputs": [
                {
                    "internalType": "bool",
                    "name": "",
                    "type": "bool"
                }
            ],
            "stateMutability": "nonpayable",
            "type": "function"
        },
        {
            "inputs": [
                {
                    "internalType": "address",
                    "name": "from",
                    "type": "address"
                },
                {
                    "internalType": "address",
                    "name": "to",
                    "type": "address"
                },
                {
                    "internalType": "uint256",
                    "name": "value",
                    "type": "uint256"
                }
            ],
            "name": "transferFrom",
            "outputs": [
                {
                    "internalType": "bool",
                    "name": "",
                    "type": "bool"
                }
            ],
            "stateMutability": "nonpayable",
            "type": "function"
        },
        {
            "inputs": [
                {
                    "internalType": "address",
                    "name": "newOwner",
                    "type": "address"
                }
            ],
            "name": "transferOwnership",
            "outputs": [],
            "stateMutability": "nonpayable",
            "type": "function"
        }
    ],
    "bytecode": "61016080604052346104b8576020816115a0803803809161002082856104bc565b8339810103126104b857516001600160a01b038116908190036104b85760405161004b6040826104bc565b60088152602081016753757976616e743160c01b8152604051916100706040846104bc565b600883526753757976616e743160c01b6020840152604051936100946040866104bc565b6005855264535559543160d81b6020860152604051946100b56040876104bc565b60018652603160f81b60208701908152855190956001600160401b0382116103bb5760035490600182811c921680156104ae575b602083101461039d5781601f849311610440575b50602090601f83116001146103da575f926103cf575b50508160011b915f199060031b1c1916176003555b8051906001600160401b0382116103bb5760045490600182811c921680156103b1575b602083101461039d5781601f84931161032f575b50602090601f83116001146102c9575f926102be575b50508160011b915f199060031b1c1916176004555b80156102ab57600580546001600160a01b0319811683179091556001600160a01b03167f8be0079c531659141344cd1fd0a4f28419497f9722a3daafe3b4186f6b6457e05f80a36101da816104df565b610120526101e784610666565b61014052519020918260e05251902080610100524660a0526040519060208201927f8b73c3c69bb8fe3d512ecc4cf759cc79239f7b179b0ffacaa9a75d522b39400f8452604083015260608201524660808201523060a082015260a0815261025060c0826104bc565b5190206080523060c052604051610e01908161079f823960805181610ac3015260a05181610b80015260c05181610a8d015260e05181610b1201526101005181610b3801526101205181610449015261014051816104720152f35b631e4fbdf760e01b5f525f60045260245ffd5b015190505f80610175565b60045f9081528281209350601f198516905b81811061031757509084600195949392106102ff575b505050811b0160045561018a565b01515f1960f88460031b161c191690555f80806102f1565b929360206001819287860151815501950193016102db565b60045f529091507f8a35acfbc15ff81a39ae7d344fd709f28e8600b4aa8c65c6b64bfe7fe36bd19b601f840160051c81019160208510610393575b90601f859493920160051c01905b818110610385575061015f565b5f8155849350600101610378565b909150819061036a565b634e487b7160e01b5f52602260045260245ffd5b91607f169161014b565b634e487b7160e01b5f52604160045260245ffd5b015190505f80610113565b60035f9081528281209350601f198516905b8181106104285750908460019594939210610410575b505050811b01600355610128565b01515f1960f88460031b161c191690555f8080610402565b929360206001819287860151815501950193016103ec565b60035f529091507fc2575a0e9e593c00f959f8c92f12db2869c3395a3b0502d05e2516446f71f85b601f840160051c810191602085106104a4575b90601f859493920160051c01905b81811061049657506100fd565b5f8155849350600101610489565b909150819061047b565b91607f16916100e9565b5f80fd5b601f909101601f19168101906001600160401b038211908210176103bb57604052565b908151602081105f14610559575090601f81511161051957602081519101516020821061050a571790565b5f198260200360031b1b161790565b604460209160405192839163305a27a960e01b83528160048401528051918291826024860152018484015e5f828201840152601f01601f19168101030190fd5b6001600160401b0381116103bb57600654600181811c9116801561065c575b602082101461039d57601f8111610629575b50602092601f82116001146105c857928192935f926105bd575b50508160011b915f199060031b1c19161760065560ff90565b015190505f806105a4565b601f1982169360065f52805f20915f5b86811061061157508360019596106105f9575b505050811b0160065560ff90565b01515f1960f88460031b161c191690555f80806105eb565b919260206001819286850151815501940192016105d8565b60065f52601f60205f20910160051c810190601f830160051c015b818110610651575061058a565b5f8155600101610644565b90607f1690610578565b908151602081105f14610691575090601f81511161051957602081519101516020821061050a571790565b6001600160401b0381116103bb57600754600181811c91168015610794575b602082101461039d57601f8111610761575b50602092601f821160011461070057928192935f926106f5575b50508160011b915f199060031b1c19161760075560ff90565b015190505f806106dc565b601f1982169360075f52805f20915f5b8681106107495750836001959610610731575b505050811b0160075560ff90565b01515f1960f88460031b161c191690555f8080610723565b91926020600181928685015181550194019201610710565b60075f52601f60205f20910160051c810190601f830160051c015b81811061078957506106c2565b5f815560010161077c565b90607f16906106b056fe6080806040526004361015610012575f80fd5b5f3560e01c90816306fdde03146107ff57508063095ea7b3146107d957806318160ddd146107bc57806323b872dd146106dc578063313ce567146106c15780633644e5151461069f57806340c10f19146105f357806370a08231146105bc578063715018a6146105615780637ecebe001461052957806384b0196e146104315780638da5cb5b1461040957806395d89b4114610327578063a9059cbb146102f6578063d505accf146101b1578063dd62ed3e146101615763f2fde38b146100d7575f80fd5b3461015d57602036600319011261015d576100f06108c5565b6100f8610ba6565b6001600160a01b0316801561014a57600580546001600160a01b0319811683179091556001600160a01b03167f8be0079c531659141344cd1fd0a4f28419497f9722a3daafe3b4186f6b6457e05f80a3005b631e4fbdf760e01b5f525f60045260245ffd5b5f80fd5b3461015d57604036600319011261015d5761017a6108c5565b6101826108db565b6001600160a01b039182165f908152600160209081526040808320949093168252928352819020549051908152f35b3461015d5760e036600319011261015d576101ca6108c5565b6101d26108db565b604435906064359260843560ff8116810361015d578442116102e3576102a66102af9160018060a01b03841696875f52600860205260405f20908154916001830190556040519060208201927f6e71edae12b1b97f4d1f60370fef10105fa2faae0126114a169c64845d6126c984528a604084015260018060a01b038916606084015289608084015260a083015260c082015260c0815261027460e0826109aa565b51902061027f610a8a565b906040519161190160f01b83526002830152602282015260c43591604260a4359220610cca565b90929192610d57565b6001600160a01b03168481036102cc57506102ca9350610bcd565b005b84906325c0072360e11b5f5260045260245260445ffd5b8463313c898160e11b5f5260045260245ffd5b3461015d57604036600319011261015d5761031c6103126108c5565b60243590336109e0565b602060405160018152f35b3461015d575f36600319011261015d576040515f600454610347816108f1565b80845290600181169081156103e55750600114610387575b6103838361036f818503826109aa565b6040519182916020835260208301906108a1565b0390f35b60045f9081527f8a35acfbc15ff81a39ae7d344fd709f28e8600b4aa8c65c6b64bfe7fe36bd19b939250905b8082106103cb5750909150810160200161036f61035f565b9192600181602092548385880101520191019092916103b3565b60ff191660208086019190915291151560051b8401909101915061036f905061035f565b3461015d575f36600319011261015d576005546040516001600160a01b039091168152602090f35b3461015d575f36600319011261015d576104cd61046d7f0000000000000000000000000000000000000000000000000000000000000000610c30565b6104967f0000000000000000000000000000000000000000000000000000000000000000610c93565b60206104db604051926104a983856109aa565b5f84525f368137604051958695600f60f81b875260e08588015260e08701906108a1565b9085820360408701526108a1565b4660608501523060808501525f60a085015283810360c08501528180845192838152019301915f5b82811061051257505050500390f35b835185528695509381019392810192600101610503565b3461015d57602036600319011261015d576001600160a01b0361054a6108c5565b165f526008602052602060405f2054604051908152f35b3461015d575f36600319011261015d57610579610ba6565b600580546001600160a01b031981169091555f906001600160a01b03167f8be0079c531659141344cd1fd0a4f28419497f9722a3daafe3b4186f6b6457e08280a3005b3461015d57602036600319011261015d576001600160a01b036105dd6108c5565b165f525f602052602060405f2054604051908152f35b3461015d57604036600319011261015d5761060c6108c5565b60243590610618610ba6565b6001600160a01b031690811561068c57600254908082018092116106785760207fddf252ad1be2c89b69c2b068fc378daa952ba7f163c4a11628f55a4df523b3ef915f9360025584845283825260408420818154019055604051908152a3005b634e487b7160e01b5f52601160045260245ffd5b63ec442f0560e01b5f525f60045260245ffd5b3461015d575f36600319011261015d5760206106b9610a8a565b604051908152f35b3461015d575f36600319011261015d57602060405160128152f35b3461015d57606036600319011261015d576106f56108c5565b6106fd6108db565b6001600160a01b0382165f81815260016020818152604080842033855290915290912054919360443593929091810161073c575b5061031c93506109e0565b8381106107a157841561078e57331561077b5761031c945f52600160205260405f2060018060a01b0333165f526020528360405f209103905584610731565b634a1406b160e11b5f525f60045260245ffd5b63e602df0560e01b5f525f60045260245ffd5b8390637dc7a0d960e11b5f523360045260245260445260645ffd5b3461015d575f36600319011261015d576020600254604051908152f35b3461015d57604036600319011261015d5761031c6107f56108c5565b6024359033610bcd565b3461015d575f36600319011261015d575f60035461081c816108f1565b80845290600181169081156103e55750600114610843576103838361036f818503826109aa565b60035f9081527fc2575a0e9e593c00f959f8c92f12db2869c3395a3b0502d05e2516446f71f85b939250905b8082106108875750909150810160200161036f61035f565b91926001816020925483858801015201910190929161086f565b805180835260209291819084018484015e5f828201840152601f01601f1916010190565b600435906001600160a01b038216820361015d57565b602435906001600160a01b038216820361015d57565b90600182811c9216801561091f575b602083101461090b57565b634e487b7160e01b5f52602260045260245ffd5b91607f1691610900565b5f9291815491610938836108f1565b808352926001811690811561098d575060011461095457505050565b5f9081526020812093945091925b838310610973575060209250010190565b600181602092949394548385870101520191019190610962565b915050602093945060ff929192191683830152151560051b010190565b90601f8019910116810190811067ffffffffffffffff8211176109cc57604052565b634e487b7160e01b5f52604160045260245ffd5b6001600160a01b0316908115610a77576001600160a01b031691821561068c57815f525f60205260405f2054818110610a5e57817fddf252ad1be2c89b69c2b068fc378daa952ba7f163c4a11628f55a4df523b3ef92602092855f525f84520360405f2055845f525f825260405f20818154019055604051908152a3565b8263391434e360e21b5f5260045260245260445260645ffd5b634b637e8f60e11b5f525f60045260245ffd5b307f00000000000000000000000000000000000000000000000000000000000000006001600160a01b03161480610b7d575b15610ae5577f000000000000000000000000000000000000000000000000000000000000000090565b60405160208101907f8b73c3c69bb8fe3d512ecc4cf759cc79239f7b179b0ffacaa9a75d522b39400f82527f000000000000000000000000000000000000000000000000000000000000000060408201527f000000000000000000000000000000000000000000000000000000000000000060608201524660808201523060a082015260a08152610b7760c0826109aa565b51902090565b507f00000000000000000000000000000000000000000000000000000000000000004614610abc565b6005546001600160a01b03163303610bba57565b63118cdaa760e01b5f523360045260245ffd5b6001600160a01b031690811561078e576001600160a01b031691821561077b5760207f8c5be1e5ebec7d5bd14f71427d1e84f3dd0314c0f7b2291e5b200ac8c7c3b92591835f526001825260405f20855f5282528060405f2055604051908152a3565b60ff8114610c765760ff811690601f8211610c675760405191610c546040846109aa565b6020808452838101919036833783525290565b632cd44ac360e21b5f5260045ffd5b50604051610c9081610c89816006610929565b03826109aa565b90565b60ff8114610cb75760ff811690601f8211610c675760405191610c546040846109aa565b50604051610c9081610c89816007610929565b91907f7fffffffffffffffffffffffffffffff5d576e7357a4501ddfe92f46681b20a08411610d4c579160209360809260ff5f9560405194855216868401526040830152606082015282805260015afa15610d41575f516001600160a01b03811615610d3757905f905f90565b505f906001905f90565b6040513d5f823e3d90fd5b5050505f9160039190565b6004811015610db75780610d69575050565b60018103610d805763f645eedf60e01b5f5260045ffd5b60028103610d9b575063fce698f760e01b5f5260045260245ffd5b600314610da55750565b6335e2f38360e21b5f5260045260245ffd5b634e487b7160e01b5f52602160045260245ffdfea26469706673582212209950d2695d805fb8a5e9a28092fc132db344a6f8769e143f3626f4d7f608987164736f6c634300081c0033",
    "sourcePath": "/Users/steph/src/code/phase1/contracts/SuyvanT.sol",
    "compiler": {
        "name": "solc",
        "version": "0.8.28+commit.7893614a"
    },
    "functionHashes": {
        "DOMAIN_SEPARATOR()": "3644e515",
        "allowance(address,address)": "dd62ed3e",
        "approve(address,uint256)": "095ea7b3",
        "balanceOf(address)": "70a08231",
        "decimals()": "313ce567",
        "eip712Domain()": "84b0196e",
        "mint(address,uint256)": "40c10f19",
        "name()": "06fdde03",
        "nonces(address)": "7ecebe00",
        "owner()": "8da5cb5b",
        "permit(address,address,uint256,uint256,uint8,bytes32,bytes32)": "d505accf",
        "renounceOwnership()": "715018a6",
        "symbol()": "95d89b41",
        "totalSupply()": "18160ddd",
        "transfer(address,uint256)": "a9059cbb",
        "transferFrom(address,address,uint256)": "23b872dd",
        "transferOwnership(address)": "f2fde38b"
    },
    "gasEstimates": {
        "creation": {
            "codeDepositCost": "717000",
            "executionCost": "infinite",
            "totalCost": "infinite"
        },
        "external": {
            "DOMAIN_SEPARATOR()": "infinite",
            "allowance(address,address)": "2903",
            "approve(address,uint256)": "24372",
            "balanceOf(address)": "2559",
            "decimals()": "241",
            "eip712Domain()": "infinite",
            "mint(address,uint256)": "52856",
            "name()": "infinite",
            "nonces(address)": "2604",
            "owner()": "2522",
            "permit(address,address,uint256,uint256,uint8,bytes32,bytes32)": "infinite",
            "renounceOwnership()": "28236",
            "symbol()": "infinite",
            "totalSupply()": "2300",
            "transfer(address,uint256)": "51040",
            "transferFrom(address,address,uint256)": "75527",
            "transferOwnership(address)": "28520"
        }
    }
}